{
  "contractName": "NFT",
  "abi": [
    {
      "inputs": [
        {
          "internalType": "string",
          "name": "_initBaseURI",
          "type": "string"
        },
        {
          "internalType": "string",
          "name": "_initNotRevealedUri",
          "type": "string"
        }
      ],
      "stateMutability": "payable",
      "type": "constructor"
    },
    {
      "anonymous": false,
      "inputs": [
        {
          "indexed": true,
          "internalType": "address",
          "name": "owner",
          "type": "address"
        },
        {
          "indexed": true,
          "internalType": "address",
          "name": "approved",
          "type": "address"
        },
        {
          "indexed": true,
          "internalType": "uint256",
          "name": "tokenId",
          "type": "uint256"
        }
      ],
      "name": "Approval",
      "type": "event"
    },
    {
      "anonymous": false,
      "inputs": [
        {
          "indexed": true,
          "internalType": "address",
          "name": "owner",
          "type": "address"
        },
        {
          "indexed": true,
          "internalType": "address",
          "name": "operator",
          "type": "address"
        },
        {
          "indexed": false,
          "internalType": "bool",
          "name": "approved",
          "type": "bool"
        }
      ],
      "name": "ApprovalForAll",
      "type": "event"
    },
    {
      "anonymous": false,
      "inputs": [
        {
          "indexed": true,
          "internalType": "address",
          "name": "previousOwner",
          "type": "address"
        },
        {
          "indexed": true,
          "internalType": "address",
          "name": "newOwner",
          "type": "address"
        }
      ],
      "name": "OwnershipTransferred",
      "type": "event"
    },
    {
      "anonymous": false,
      "inputs": [
        {
          "indexed": true,
          "internalType": "address",
          "name": "from",
          "type": "address"
        },
        {
          "indexed": true,
          "internalType": "address",
          "name": "to",
          "type": "address"
        },
        {
          "indexed": true,
          "internalType": "uint256",
          "name": "tokenId",
          "type": "uint256"
        }
      ],
      "name": "Transfer",
      "type": "event"
    },
    {
      "anonymous": false,
      "inputs": [
        {
          "indexed": false,
          "internalType": "address",
          "name": "",
          "type": "address"
        },
        {
          "indexed": false,
          "internalType": "uint256",
          "name": "",
          "type": "uint256"
        }
      ],
      "name": "whoMint",
      "type": "event"
    },
    {
      "inputs": [
        {
          "internalType": "address",
          "name": "to",
          "type": "address"
        },
        {
          "internalType": "uint256",
          "name": "tokenId",
          "type": "uint256"
        }
      ],
      "name": "approve",
      "outputs": [],
      "stateMutability": "nonpayable",
      "type": "function"
    },
    {
      "inputs": [
        {
          "internalType": "address",
          "name": "owner",
          "type": "address"
        }
      ],
      "name": "balanceOf",
      "outputs": [
        {
          "internalType": "uint256",
          "name": "",
          "type": "uint256"
        }
      ],
      "stateMutability": "view",
      "type": "function"
    },
    {
      "inputs": [],
      "name": "baseExtension",
      "outputs": [
        {
          "internalType": "string",
          "name": "",
          "type": "string"
        }
      ],
      "stateMutability": "view",
      "type": "function"
    },
    {
      "inputs": [
        {
          "internalType": "address",
          "name": "",
          "type": "address"
        }
      ],
      "name": "billeteraToNFT",
      "outputs": [
        {
          "internalType": "uint256",
          "name": "",
          "type": "uint256"
        }
      ],
      "stateMutability": "view",
      "type": "function"
    },
    {
      "inputs": [],
      "name": "contrato",
      "outputs": [
        {
          "internalType": "address",
          "name": "",
          "type": "address"
        }
      ],
      "stateMutability": "view",
      "type": "function"
    },
    {
      "inputs": [],
      "name": "counter",
      "outputs": [
        {
          "internalType": "uint256",
          "name": "",
          "type": "uint256"
        }
      ],
      "stateMutability": "view",
      "type": "function"
    },
    {
      "inputs": [
        {
          "internalType": "uint256",
          "name": "tokenId",
          "type": "uint256"
        }
      ],
      "name": "getApproved",
      "outputs": [
        {
          "internalType": "address",
          "name": "",
          "type": "address"
        }
      ],
      "stateMutability": "view",
      "type": "function"
    },
    {
      "inputs": [
        {
          "internalType": "uint256",
          "name": "",
          "type": "uint256"
        }
      ],
      "name": "idToAddress",
      "outputs": [
        {
          "internalType": "address",
          "name": "",
          "type": "address"
        }
      ],
      "stateMutability": "view",
      "type": "function"
    },
    {
      "inputs": [
        {
          "internalType": "address",
          "name": "owner",
          "type": "address"
        },
        {
          "internalType": "address",
          "name": "operator",
          "type": "address"
        }
      ],
      "name": "isApprovedForAll",
      "outputs": [
        {
          "internalType": "bool",
          "name": "",
          "type": "bool"
        }
      ],
      "stateMutability": "view",
      "type": "function"
    },
    {
      "inputs": [],
      "name": "maxMintAmount",
      "outputs": [
        {
          "internalType": "uint256",
          "name": "",
          "type": "uint256"
        }
      ],
      "stateMutability": "view",
      "type": "function"
    },
    {
      "inputs": [],
      "name": "maxSupply",
      "outputs": [
        {
          "internalType": "uint256",
          "name": "",
          "type": "uint256"
        }
      ],
      "stateMutability": "view",
      "type": "function"
    },
    {
      "inputs": [],
      "name": "name",
      "outputs": [
        {
          "internalType": "string",
          "name": "",
          "type": "string"
        }
      ],
      "stateMutability": "view",
      "type": "function"
    },
    {
      "inputs": [],
      "name": "notRevealedUri",
      "outputs": [
        {
          "internalType": "string",
          "name": "",
          "type": "string"
        }
      ],
      "stateMutability": "view",
      "type": "function"
    },
    {
      "inputs": [],
      "name": "owner",
      "outputs": [
        {
          "internalType": "address",
          "name": "",
          "type": "address"
        }
      ],
      "stateMutability": "view",
      "type": "function"
    },
    {
      "inputs": [
        {
          "internalType": "uint256",
          "name": "tokenId",
          "type": "uint256"
        }
      ],
      "name": "ownerOf",
      "outputs": [
        {
          "internalType": "address",
          "name": "",
          "type": "address"
        }
      ],
      "stateMutability": "view",
      "type": "function"
    },
    {
      "inputs": [],
      "name": "pause",
      "outputs": [
        {
          "internalType": "bool",
          "name": "",
          "type": "bool"
        }
      ],
      "stateMutability": "view",
      "type": "function"
    },
    {
      "inputs": [],
      "name": "renounceOwnership",
      "outputs": [],
      "stateMutability": "nonpayable",
      "type": "function"
    },
    {
      "inputs": [],
      "name": "revealed",
      "outputs": [
        {
          "internalType": "bool",
          "name": "",
          "type": "bool"
        }
      ],
      "stateMutability": "view",
      "type": "function"
    },
    {
      "inputs": [
        {
          "internalType": "address",
          "name": "from",
          "type": "address"
        },
        {
          "internalType": "address",
          "name": "to",
          "type": "address"
        },
        {
          "internalType": "uint256",
          "name": "tokenId",
          "type": "uint256"
        }
      ],
      "name": "safeTransferFrom",
      "outputs": [],
      "stateMutability": "nonpayable",
      "type": "function"
    },
    {
      "inputs": [
        {
          "internalType": "address",
          "name": "from",
          "type": "address"
        },
        {
          "internalType": "address",
          "name": "to",
          "type": "address"
        },
        {
          "internalType": "uint256",
          "name": "tokenId",
          "type": "uint256"
        },
        {
          "internalType": "bytes",
          "name": "_data",
          "type": "bytes"
        }
      ],
      "name": "safeTransferFrom",
      "outputs": [],
      "stateMutability": "nonpayable",
      "type": "function"
    },
    {
      "inputs": [
        {
          "internalType": "address",
          "name": "operator",
          "type": "address"
        },
        {
          "internalType": "bool",
          "name": "approved",
          "type": "bool"
        }
      ],
      "name": "setApprovalForAll",
      "outputs": [],
      "stateMutability": "nonpayable",
      "type": "function"
    },
    {
      "inputs": [
        {
          "internalType": "bytes4",
          "name": "interfaceId",
          "type": "bytes4"
        }
      ],
      "name": "supportsInterface",
      "outputs": [
        {
          "internalType": "bool",
          "name": "",
          "type": "bool"
        }
      ],
      "stateMutability": "view",
      "type": "function"
    },
    {
      "inputs": [],
      "name": "symbol",
      "outputs": [
        {
          "internalType": "string",
          "name": "",
          "type": "string"
        }
      ],
      "stateMutability": "view",
      "type": "function"
    },
    {
      "inputs": [
        {
          "internalType": "address",
          "name": "from",
          "type": "address"
        },
        {
          "internalType": "address",
          "name": "to",
          "type": "address"
        },
        {
          "internalType": "uint256",
          "name": "tokenId",
          "type": "uint256"
        }
      ],
      "name": "transferFrom",
      "outputs": [],
      "stateMutability": "nonpayable",
      "type": "function"
    },
    {
      "inputs": [
        {
          "internalType": "address",
          "name": "newOwner",
          "type": "address"
        }
      ],
      "name": "transferOwnership",
      "outputs": [],
      "stateMutability": "nonpayable",
      "type": "function"
    },
    {
      "inputs": [
        {
          "internalType": "uint256",
          "name": "_mintAmount",
          "type": "uint256"
        }
      ],
      "name": "mint",
      "outputs": [],
      "stateMutability": "payable",
      "type": "function"
    },
    {
      "inputs": [],
      "name": "activacion",
      "outputs": [],
      "stateMutability": "nonpayable",
      "type": "function"
    },
    {
      "inputs": [],
      "name": "getAllNFT",
      "outputs": [
        {
          "components": [
            {
              "internalType": "address",
              "name": "add",
              "type": "address"
            },
            {
              "internalType": "uint256",
              "name": "id",
              "type": "uint256"
            }
          ],
          "internalType": "struct NFT.cuerpoNft[]",
          "name": "",
          "type": "tuple[]"
        }
      ],
      "stateMutability": "view",
      "type": "function"
    },
    {
      "inputs": [
        {
          "internalType": "address",
          "name": "_address",
          "type": "address"
        }
      ],
      "name": "getOwnerNFT",
      "outputs": [
        {
          "components": [
            {
              "internalType": "address",
              "name": "add",
              "type": "address"
            },
            {
              "internalType": "uint256",
              "name": "id",
              "type": "uint256"
            }
          ],
          "internalType": "struct NFT.cuerpoNft[]",
          "name": "",
          "type": "tuple[]"
        }
      ],
      "stateMutability": "view",
      "type": "function"
    },
    {
      "inputs": [
        {
          "internalType": "uint256",
          "name": "_tokenId",
          "type": "uint256"
        }
      ],
      "name": "tokenURI",
      "outputs": [
        {
          "internalType": "string",
          "name": "",
          "type": "string"
        }
      ],
      "stateMutability": "view",
      "type": "function"
    },
    {
      "inputs": [],
      "name": "reveal",
      "outputs": [],
      "stateMutability": "nonpayable",
      "type": "function"
    },
    {
      "inputs": [
        {
          "internalType": "uint256",
          "name": "_maxMintAmountPerTx",
          "type": "uint256"
        }
      ],
      "name": "setMaxMintAmountPerTx",
      "outputs": [],
      "stateMutability": "nonpayable",
      "type": "function"
    },
    {
      "inputs": [
        {
          "internalType": "string",
          "name": "_notRevealedURI",
          "type": "string"
        }
      ],
      "name": "setNotRevealedURI",
      "outputs": [],
      "stateMutability": "nonpayable",
      "type": "function"
    },
    {
      "inputs": [
        {
          "internalType": "string",
          "name": "_newBaseURI",
          "type": "string"
        }
      ],
      "name": "setBaseURI",
      "outputs": [],
      "stateMutability": "nonpayable",
      "type": "function"
    },
    {
      "inputs": [
        {
          "internalType": "string",
          "name": "_newBaseExtension",
          "type": "string"
        }
      ],
      "name": "setBaseExtension",
      "outputs": [],
      "stateMutability": "nonpayable",
      "type": "function"
    },
    {
      "inputs": [
        {
          "internalType": "address payable",
          "name": "_to",
          "type": "address"
        },
        {
          "internalType": "uint256",
          "name": "_amount",
          "type": "uint256"
        }
      ],
      "name": "sendEther",
      "outputs": [],
      "stateMutability": "payable",
      "type": "function"
    },
    {
      "inputs": [
        {
          "internalType": "address",
          "name": "_wallet",
          "type": "address"
        }
      ],
      "name": "balanceContract",
      "outputs": [
        {
          "internalType": "uint256",
          "name": "",
          "type": "uint256"
        }
      ],
      "stateMutability": "view",
      "type": "function"
    }
  ],
  "bytecode": "0x608060405265b5e620f48000600955612710600a556005600b556000600c60006101000a81548160ff0219169083151502179055506000600d556000600e60006101000a81548160ff0219169083151502179055506040518060400160405280600581526020017f2e6a736f6e00000000000000000000000000000000000000000000000000000081525060119080519060200190620000a192919062000481565b5060405162004bda38038062004bda8339818101604052810190620000c79190620006ce565b6040518060400160405280600781526020017f4e46544c697073000000000000000000000000000000000000000000000000008152506040518060400160405280600481526020017f4c6970730000000000000000000000000000000000000000000000000000000081525081600090805190602001906200014b92919062000481565b5080600190805190602001906200016492919062000481565b505050620001876200017b6200023360201b60201c565b6200023b60201b60201c565b30600760006101000a81548173ffffffffffffffffffffffffffffffffffffffff021916908373ffffffffffffffffffffffffffffffffffffffff16021790555033600860006101000a81548173ffffffffffffffffffffffffffffffffffffffff021916908373ffffffffffffffffffffffffffffffffffffffff1602179055506200021a826200030160201b60201c565b6200022b81620003ac60201b60201c565b50506200083a565b600033905090565b6000600660009054906101000a900473ffffffffffffffffffffffffffffffffffffffff16905081600660006101000a81548173ffffffffffffffffffffffffffffffffffffffff021916908373ffffffffffffffffffffffffffffffffffffffff1602179055508173ffffffffffffffffffffffffffffffffffffffff168173ffffffffffffffffffffffffffffffffffffffff167f8be0079c531659141344cd1fd0a4f28419497f9722a3daafe3b4186f6b6457e060405160405180910390a35050565b620003116200023360201b60201c565b73ffffffffffffffffffffffffffffffffffffffff16620003376200045760201b60201c565b73ffffffffffffffffffffffffffffffffffffffff161462000390576040517f08c379a00000000000000000000000000000000000000000000000000000000081526004016200038790620007b4565b60405180910390fd5b8060109080519060200190620003a892919062000481565b5050565b620003bc6200023360201b60201c565b73ffffffffffffffffffffffffffffffffffffffff16620003e26200045760201b60201c565b73ffffffffffffffffffffffffffffffffffffffff16146200043b576040517f08c379a00000000000000000000000000000000000000000000000000000000081526004016200043290620007b4565b60405180910390fd5b80600f90805190602001906200045392919062000481565b5050565b6000600660009054906101000a900473ffffffffffffffffffffffffffffffffffffffff16905090565b8280546200048f9062000805565b90600052602060002090601f016020900481019282620004b35760008555620004ff565b82601f10620004ce57805160ff1916838001178555620004ff565b82800160010185558215620004ff579182015b82811115620004fe578251825591602001919060010190620004e1565b5b5090506200050e919062000512565b5090565b5b808211156200052d57600081600090555060010162000513565b5090565b6000604051905090565b600080fd5b600080fd5b600080fd5b600080fd5b6000601f19601f8301169050919050565b7f4e487b7100000000000000000000000000000000000000000000000000000000600052604160045260246000fd5b6200059a826200054f565b810181811067ffffffffffffffff82111715620005bc57620005bb62000560565b5b80604052505050565b6000620005d162000531565b9050620005df82826200058f565b919050565b600067ffffffffffffffff82111562000602576200060162000560565b5b6200060d826200054f565b9050602081019050919050565b60005b838110156200063a5780820151818401526020810190506200061d565b838111156200064a576000848401525b50505050565b6000620006676200066184620005e4565b620005c5565b9050828152602081018484840111156200068657620006856200054a565b5b620006938482856200061a565b509392505050565b600082601f830112620006b357620006b262000545565b5b8151620006c584826020860162000650565b91505092915050565b60008060408385031215620006e857620006e76200053b565b5b600083015167ffffffffffffffff81111562000709576200070862000540565b5b62000717858286016200069b565b925050602083015167ffffffffffffffff8111156200073b576200073a62000540565b5b62000749858286016200069b565b9150509250929050565b600082825260208201905092915050565b7f4f776e61626c653a2063616c6c6572206973206e6f7420746865206f776e6572600082015250565b60006200079c60208362000753565b9150620007a98262000764565b602082019050919050565b60006020820190508181036000830152620007cf816200078d565b9050919050565b7f4e487b7100000000000000000000000000000000000000000000000000000000600052602260045260246000fd5b600060028204905060018216806200081e57607f821691505b602082108103620008345762000833620007d6565b5b50919050565b614390806200084a6000396000f3fe60806040526004361061021a5760003560e01c806395d89b4111610123578063c87b56dd116100ab578063e1a01e671161006f578063e1a01e67146107b7578063e985e9c5146107e2578063f2c4ce1e1461081f578063f2fde38b14610848578063f3b1633d146108715761021a565b8063c87b56dd146106ac578063ca299410146106e9578063d5abeb0114610726578063d942dc9414610751578063da3ef23f1461078e5761021a565b8063ac3b8aaf116100f2578063ac3b8aaf146105d6578063b071401b14610613578063b88d4fde1461063c578063c1756a2c14610665578063c6682862146106815761021a565b806395d89b411461054f578063a0712d681461057a578063a22cb46514610596578063a475b5dd146105bf5761021a565b806342842e0e116101a65780636352211e116101755780636352211e1461046857806370a08231146104a5578063715018a6146104e25780638456cb59146104f95780638da5cb5b146105245761021a565b806342842e0e146103c057806351830227146103e957806355f804b31461041457806361bc221a1461043d5761021a565b8063095ea7b3116101ed578063095ea7b3146102ef5780630f510a7414610318578063239c70ae1461032f57806323b872dd1461035a5780632a2d0c47146103835761021a565b806301ffc9a71461021f57806306fdde031461025c578063081812fc14610287578063081c8c44146102c4575b600080fd5b34801561022b57600080fd5b5061024660048036038101906102419190612c2b565b61089c565b6040516102539190612c73565b60405180910390f35b34801561026857600080fd5b5061027161097e565b60405161027e9190612d27565b60405180910390f35b34801561029357600080fd5b506102ae60048036038101906102a99190612d7f565b610a10565b6040516102bb9190612ded565b60405180910390f35b3480156102d057600080fd5b506102d9610a95565b6040516102e69190612d27565b60405180910390f35b3480156102fb57600080fd5b5061031660048036038101906103119190612e34565b610b23565b005b34801561032457600080fd5b5061032d610c3a565b005b34801561033b57600080fd5b50610344610cd3565b6040516103519190612e83565b60405180910390f35b34801561036657600080fd5b50610381600480360381019061037c9190612e9e565b610cd9565b005b34801561038f57600080fd5b506103aa60048036038101906103a59190612d7f565b610d39565b6040516103b79190612ded565b60405180910390f35b3480156103cc57600080fd5b506103e760048036038101906103e29190612e9e565b610d6c565b005b3480156103f557600080fd5b506103fe610d8c565b60405161040b9190612c73565b60405180910390f35b34801561042057600080fd5b5061043b60048036038101906104369190613026565b610d9f565b005b34801561044957600080fd5b50610452610e35565b60405161045f9190612e83565b60405180910390f35b34801561047457600080fd5b5061048f600480360381019061048a9190612d7f565b610e3b565b60405161049c9190612ded565b60405180910390f35b3480156104b157600080fd5b506104cc60048036038101906104c7919061306f565b610eec565b6040516104d99190612e83565b60405180910390f35b3480156104ee57600080fd5b506104f7610fa3565b005b34801561050557600080fd5b5061050e61102b565b60405161051b9190612c73565b60405180910390f35b34801561053057600080fd5b5061053961103e565b6040516105469190612ded565b60405180910390f35b34801561055b57600080fd5b50610564611068565b6040516105719190612d27565b60405180910390f35b610594600480360381019061058f9190612d7f565b6110fa565b005b3480156105a257600080fd5b506105bd60048036038101906105b891906130c8565b611428565b005b3480156105cb57600080fd5b506105d461143e565b005b3480156105e257600080fd5b506105fd60048036038101906105f8919061306f565b6114d7565b60405161060a9190612e83565b60405180910390f35b34801561061f57600080fd5b5061063a60048036038101906106359190612d7f565b6114ef565b005b34801561064857600080fd5b50610663600480360381019061065e91906131a9565b611575565b005b61067f600480360381019061067a919061326a565b6115d7565b005b34801561068d57600080fd5b5061069661169e565b6040516106a39190612d27565b60405180910390f35b3480156106b857600080fd5b506106d360048036038101906106ce9190612d7f565b61172c565b6040516106e09190612d27565b60405180910390f35b3480156106f557600080fd5b50610710600480360381019061070b919061306f565b611884565b60405161071d9190612e83565b60405180910390f35b34801561073257600080fd5b5061073b6118a5565b6040516107489190612e83565b60405180910390f35b34801561075d57600080fd5b506107786004803603810190610773919061306f565b6118ab565b60405161078591906133a6565b60405180910390f35b34801561079a57600080fd5b506107b560048036038101906107b09190613026565b611a68565b005b3480156107c357600080fd5b506107cc611afe565b6040516107d99190612ded565b60405180910390f35b3480156107ee57600080fd5b50610809600480360381019061080491906133c8565b611b24565b6040516108169190612c73565b60405180910390f35b34801561082b57600080fd5b5061084660048036038101906108419190613026565b611bb8565b005b34801561085457600080fd5b5061086f600480360381019061086a919061306f565b611c4e565b005b34801561087d57600080fd5b50610886611d45565b60405161089391906133a6565b60405180910390f35b60007f80ac58cd000000000000000000000000000000000000000000000000000000007bffffffffffffffffffffffffffffffffffffffffffffffffffffffff1916827bffffffffffffffffffffffffffffffffffffffffffffffffffffffff1916148061096757507f5b5e139f000000000000000000000000000000000000000000000000000000007bffffffffffffffffffffffffffffffffffffffffffffffffffffffff1916827bffffffffffffffffffffffffffffffffffffffffffffffffffffffff1916145b80610977575061097682611e04565b5b9050919050565b60606000805461098d90613437565b80601f01602080910402602001604051908101604052809291908181526020018280546109b990613437565b8015610a065780601f106109db57610100808354040283529160200191610a06565b820191906000526020600020905b8154815290600101906020018083116109e957829003601f168201915b5050505050905090565b6000610a1b82611e6e565b610a5a576040517f08c379a0000000000000000000000000000000000000000000000000000000008152600401610a51906134da565b60405180910390fd5b6004600083815260200190815260200160002060009054906101000a900473ffffffffffffffffffffffffffffffffffffffff169050919050565b600f8054610aa290613437565b80601f0160208091040260200160405190810160405280929190818152602001828054610ace90613437565b8015610b1b5780601f10610af057610100808354040283529160200191610b1b565b820191906000526020600020905b815481529060010190602001808311610afe57829003601f168201915b505050505081565b6000610b2e82610e3b565b90508073ffffffffffffffffffffffffffffffffffffffff168373ffffffffffffffffffffffffffffffffffffffff1603610b9e576040517f08c379a0000000000000000000000000000000000000000000000000000000008152600401610b959061356c565b60405180910390fd5b8073ffffffffffffffffffffffffffffffffffffffff16610bbd611eda565b73ffffffffffffffffffffffffffffffffffffffff161480610bec5750610beb81610be6611eda565b611b24565b5b610c2b576040517f08c379a0000000000000000000000000000000000000000000000000000000008152600401610c22906135fe565b60405180910390fd5b610c358383611ee2565b505050565b610c42611eda565b73ffffffffffffffffffffffffffffffffffffffff16610c6061103e565b73ffffffffffffffffffffffffffffffffffffffff1614610cb6576040517f08c379a0000000000000000000000000000000000000000000000000000000008152600401610cad9061366a565b60405180910390fd5b6001600c60006101000a81548160ff021916908315150217905550565b600b5481565b610cea610ce4611eda565b82611f9b565b610d29576040517f08c379a0000000000000000000000000000000000000000000000000000000008152600401610d20906136fc565b60405180910390fd5b610d34838383612079565b505050565b60136020528060005260406000206000915054906101000a900473ffffffffffffffffffffffffffffffffffffffff1681565b610d8783838360405180602001604052806000815250611575565b505050565b600e60009054906101000a900460ff1681565b610da7611eda565b73ffffffffffffffffffffffffffffffffffffffff16610dc561103e565b73ffffffffffffffffffffffffffffffffffffffff1614610e1b576040517f08c379a0000000000000000000000000000000000000000000000000000000008152600401610e129061366a565b60405180910390fd5b8060109080519060200190610e31929190612aec565b5050565b600d5481565b6000806002600084815260200190815260200160002060009054906101000a900473ffffffffffffffffffffffffffffffffffffffff169050600073ffffffffffffffffffffffffffffffffffffffff168173ffffffffffffffffffffffffffffffffffffffff1603610ee3576040517f08c379a0000000000000000000000000000000000000000000000000000000008152600401610eda9061378e565b60405180910390fd5b80915050919050565b60008073ffffffffffffffffffffffffffffffffffffffff168273ffffffffffffffffffffffffffffffffffffffff1603610f5c576040517f08c379a0000000000000000000000000000000000000000000000000000000008152600401610f5390613820565b60405180910390fd5b600360008373ffffffffffffffffffffffffffffffffffffffff1673ffffffffffffffffffffffffffffffffffffffff168152602001908152602001600020549050919050565b610fab611eda565b73ffffffffffffffffffffffffffffffffffffffff16610fc961103e565b73ffffffffffffffffffffffffffffffffffffffff161461101f576040517f08c379a00000000000000000000000000000000000000000000000000000000081526004016110169061366a565b60405180910390fd5b61102960006122df565b565b600c60009054906101000a900460ff1681565b6000600660009054906101000a900473ffffffffffffffffffffffffffffffffffffffff16905090565b60606001805461107790613437565b80601f01602080910402602001604051908101604052809291908181526020018280546110a390613437565b80156110f05780601f106110c5576101008083540402835291602001916110f0565b820191906000526020600020905b8154815290600101906020018083116110d357829003601f168201915b5050505050905090565b60011515600c60009054906101000a900460ff16151514611150576040517f08c379a00000000000000000000000000000000000000000000000000000000081526004016111479061388c565b60405180910390fd5b60008111611193576040517f08c379a000000000000000000000000000000000000000000000000000000000815260040161118a906138f8565b60405180910390fd5b600b548111156111d8576040517f08c379a00000000000000000000000000000000000000000000000000000000081526004016111cf9061398a565b60405180910390fd5b600a5481600d546111e991906139d9565b111561122a576040517f08c379a000000000000000000000000000000000000000000000000000000000815260040161122190613a7b565b60405180910390fd5b806009546112389190613a9b565b34101561127a576040517f08c379a000000000000000000000000000000000000000000000000000000000815260040161127190613b41565b60405180910390fd5b600080600190506000600190505b83811161142257828061129a90613b61565b93505081806112a890613b61565b925050600d60008154809291906112be90613b61565b9190505550600060405180604001604052803373ffffffffffffffffffffffffffffffffffffffff168152602001600d548152509050601481908060018154018082558091505060019003906000526020600020906002020160009091909190915060008201518160000160006101000a81548173ffffffffffffffffffffffffffffffffffffffff021916908373ffffffffffffffffffffffffffffffffffffffff1602179055506020820151816001015550503360136000600d54815260200190815260200160002060006101000a81548173ffffffffffffffffffffffffffffffffffffffff021916908373ffffffffffffffffffffffffffffffffffffffff1602179055506113d333600d546123a5565b7fdcdf6419bd4ca929be65eef74d7b5fa5ceb26ce711a8b40d936b99ed82eb632c33600d54604051611406929190613ba9565b60405180910390a150808061141a90613b61565b915050611288565b50505050565b61143a611433611eda565b838361257e565b5050565b611446611eda565b73ffffffffffffffffffffffffffffffffffffffff1661146461103e565b73ffffffffffffffffffffffffffffffffffffffff16146114ba576040517f08c379a00000000000000000000000000000000000000000000000000000000081526004016114b19061366a565b60405180910390fd5b6001600e60006101000a81548160ff021916908315150217905550565b60126020528060005260406000206000915090505481565b6114f7611eda565b73ffffffffffffffffffffffffffffffffffffffff1661151561103e565b73ffffffffffffffffffffffffffffffffffffffff161461156b576040517f08c379a00000000000000000000000000000000000000000000000000000000081526004016115629061366a565b60405180910390fd5b80600b8190555050565b611586611580611eda565b83611f9b565b6115c5576040517f08c379a00000000000000000000000000000000000000000000000000000000081526004016115bc906136fc565b60405180910390fd5b6115d1848484846126ea565b50505050565b6115df611eda565b73ffffffffffffffffffffffffffffffffffffffff166115fd61103e565b73ffffffffffffffffffffffffffffffffffffffff1614611653576040517f08c379a000000000000000000000000000000000000000000000000000000000815260040161164a9061366a565b60405180910390fd5b8173ffffffffffffffffffffffffffffffffffffffff166108fc829081150290604051600060405180830381858888f19350505050158015611699573d6000803e3d6000fd5b505050565b601180546116ab90613437565b80601f01602080910402602001604051908101604052809291908181526020018280546116d790613437565b80156117245780601f106116f957610100808354040283529160200191611724565b820191906000526020600020905b81548152906001019060200180831161170757829003601f168201915b505050505081565b606061173782611e6e565b611776576040517f08c379a000000000000000000000000000000000000000000000000000000000815260040161176d90613c44565b60405180910390fd5b60001515600e60009054906101000a900460ff1615150361182357600f805461179e90613437565b80601f01602080910402602001604051908101604052809291908181526020018280546117ca90613437565b80156118175780601f106117ec57610100808354040283529160200191611817565b820191906000526020600020905b8154815290600101906020018083116117fa57829003601f168201915b5050505050905061187f565b600061182d612746565b9050600081511161184d576040518060200160405280600081525061187b565b80611857846127d8565b601160405160200161186b93929190613d34565b6040516020818303038152906040525b9150505b919050565b60008173ffffffffffffffffffffffffffffffffffffffff16319050919050565b600a5481565b606060006118b883610eec565b67ffffffffffffffff8111156118d1576118d0612efb565b5b60405190808252806020026020018201604052801561190a57816020015b6118f7612b72565b8152602001906001900390816118ef5790505b5090506000805b601480549050811015611a5d578473ffffffffffffffffffffffffffffffffffffffff166013600060018461194691906139d9565b815260200190815260200160002060009054906101000a900473ffffffffffffffffffffffffffffffffffffffff1673ffffffffffffffffffffffffffffffffffffffff1603611a3c57601481815481106119a4576119a3613d65565b5b90600052602060002090600202016040518060400160405290816000820160009054906101000a900473ffffffffffffffffffffffffffffffffffffffff1673ffffffffffffffffffffffffffffffffffffffff1673ffffffffffffffffffffffffffffffffffffffff168152602001600182015481525050838381518110611a3057611a2f613d65565b5b60200260200101819052505b8180611a4790613b61565b9250508080611a5590613b61565b915050611911565b508192505050919050565b611a70611eda565b73ffffffffffffffffffffffffffffffffffffffff16611a8e61103e565b73ffffffffffffffffffffffffffffffffffffffff1614611ae4576040517f08c379a0000000000000000000000000000000000000000000000000000000008152600401611adb9061366a565b60405180910390fd5b8060119080519060200190611afa929190612aec565b5050565b600760009054906101000a900473ffffffffffffffffffffffffffffffffffffffff1681565b6000600560008473ffffffffffffffffffffffffffffffffffffffff1673ffffffffffffffffffffffffffffffffffffffff16815260200190815260200160002060008373ffffffffffffffffffffffffffffffffffffffff1673ffffffffffffffffffffffffffffffffffffffff16815260200190815260200160002060009054906101000a900460ff16905092915050565b611bc0611eda565b73ffffffffffffffffffffffffffffffffffffffff16611bde61103e565b73ffffffffffffffffffffffffffffffffffffffff1614611c34576040517f08c379a0000000000000000000000000000000000000000000000000000000008152600401611c2b9061366a565b60405180910390fd5b80600f9080519060200190611c4a929190612aec565b5050565b611c56611eda565b73ffffffffffffffffffffffffffffffffffffffff16611c7461103e565b73ffffffffffffffffffffffffffffffffffffffff1614611cca576040517f08c379a0000000000000000000000000000000000000000000000000000000008152600401611cc19061366a565b60405180910390fd5b600073ffffffffffffffffffffffffffffffffffffffff168173ffffffffffffffffffffffffffffffffffffffff1603611d39576040517f08c379a0000000000000000000000000000000000000000000000000000000008152600401611d3090613e06565b60405180910390fd5b611d42816122df565b50565b60606014805480602002602001604051908101604052809291908181526020016000905b82821015611dfb57838290600052602060002090600202016040518060400160405290816000820160009054906101000a900473ffffffffffffffffffffffffffffffffffffffff1673ffffffffffffffffffffffffffffffffffffffff1673ffffffffffffffffffffffffffffffffffffffff16815260200160018201548152505081526020019060010190611d69565b50505050905090565b60007f01ffc9a7000000000000000000000000000000000000000000000000000000007bffffffffffffffffffffffffffffffffffffffffffffffffffffffff1916827bffffffffffffffffffffffffffffffffffffffffffffffffffffffff1916149050919050565b60008073ffffffffffffffffffffffffffffffffffffffff166002600084815260200190815260200160002060009054906101000a900473ffffffffffffffffffffffffffffffffffffffff1673ffffffffffffffffffffffffffffffffffffffff1614159050919050565b600033905090565b816004600083815260200190815260200160002060006101000a81548173ffffffffffffffffffffffffffffffffffffffff021916908373ffffffffffffffffffffffffffffffffffffffff160217905550808273ffffffffffffffffffffffffffffffffffffffff16611f5583610e3b565b73ffffffffffffffffffffffffffffffffffffffff167f8c5be1e5ebec7d5bd14f71427d1e84f3dd0314c0f7b2291e5b200ac8c7c3b92560405160405180910390a45050565b6000611fa682611e6e565b611fe5576040517f08c379a0000000000000000000000000000000000000000000000000000000008152600401611fdc90613e98565b60405180910390fd5b6000611ff083610e3b565b90508073ffffffffffffffffffffffffffffffffffffffff168473ffffffffffffffffffffffffffffffffffffffff16148061203257506120318185611b24565b5b8061207057508373ffffffffffffffffffffffffffffffffffffffff1661205884610a10565b73ffffffffffffffffffffffffffffffffffffffff16145b91505092915050565b8273ffffffffffffffffffffffffffffffffffffffff1661209982610e3b565b73ffffffffffffffffffffffffffffffffffffffff16146120ef576040517f08c379a00000000000000000000000000000000000000000000000000000000081526004016120e690613f2a565b60405180910390fd5b600073ffffffffffffffffffffffffffffffffffffffff168273ffffffffffffffffffffffffffffffffffffffff160361215e576040517f08c379a000000000000000000000000000000000000000000000000000000000815260040161215590613fbc565b60405180910390fd5b612169838383612938565b612174600082611ee2565b6001600360008573ffffffffffffffffffffffffffffffffffffffff1673ffffffffffffffffffffffffffffffffffffffff16815260200190815260200160002060008282546121c49190613fdc565b925050819055506001600360008473ffffffffffffffffffffffffffffffffffffffff1673ffffffffffffffffffffffffffffffffffffffff168152602001908152602001600020600082825461221b91906139d9565b92505081905550816002600083815260200190815260200160002060006101000a81548173ffffffffffffffffffffffffffffffffffffffff021916908373ffffffffffffffffffffffffffffffffffffffff160217905550808273ffffffffffffffffffffffffffffffffffffffff168473ffffffffffffffffffffffffffffffffffffffff167fddf252ad1be2c89b69c2b068fc378daa952ba7f163c4a11628f55a4df523b3ef60405160405180910390a46122da83838361293d565b505050565b6000600660009054906101000a900473ffffffffffffffffffffffffffffffffffffffff16905081600660006101000a81548173ffffffffffffffffffffffffffffffffffffffff021916908373ffffffffffffffffffffffffffffffffffffffff1602179055508173ffffffffffffffffffffffffffffffffffffffff168173ffffffffffffffffffffffffffffffffffffffff167f8be0079c531659141344cd1fd0a4f28419497f9722a3daafe3b4186f6b6457e060405160405180910390a35050565b600073ffffffffffffffffffffffffffffffffffffffff168273ffffffffffffffffffffffffffffffffffffffff1603612414576040517f08c379a000000000000000000000000000000000000000000000000000000000815260040161240b9061405c565b60405180910390fd5b61241d81611e6e565b1561245d576040517f08c379a0000000000000000000000000000000000000000000000000000000008152600401612454906140c8565b60405180910390fd5b61246960008383612938565b6001600360008473ffffffffffffffffffffffffffffffffffffffff1673ffffffffffffffffffffffffffffffffffffffff16815260200190815260200160002060008282546124b991906139d9565b92505081905550816002600083815260200190815260200160002060006101000a81548173ffffffffffffffffffffffffffffffffffffffff021916908373ffffffffffffffffffffffffffffffffffffffff160217905550808273ffffffffffffffffffffffffffffffffffffffff16600073ffffffffffffffffffffffffffffffffffffffff167fddf252ad1be2c89b69c2b068fc378daa952ba7f163c4a11628f55a4df523b3ef60405160405180910390a461257a6000838361293d565b5050565b8173ffffffffffffffffffffffffffffffffffffffff168373ffffffffffffffffffffffffffffffffffffffff16036125ec576040517f08c379a00000000000000000000000000000000000000000000000000000000081526004016125e390614134565b60405180910390fd5b80600560008573ffffffffffffffffffffffffffffffffffffffff1673ffffffffffffffffffffffffffffffffffffffff16815260200190815260200160002060008473ffffffffffffffffffffffffffffffffffffffff1673ffffffffffffffffffffffffffffffffffffffff16815260200190815260200160002060006101000a81548160ff0219169083151502179055508173ffffffffffffffffffffffffffffffffffffffff168373ffffffffffffffffffffffffffffffffffffffff167f17307eab39ab6107e8899845ad3d59bd9653f200f220920489ca2b5937696c31836040516126dd9190612c73565b60405180910390a3505050565b6126f5848484612079565b61270184848484612942565b612740576040517f08c379a0000000000000000000000000000000000000000000000000000000008152600401612737906141c6565b60405180910390fd5b50505050565b60606010805461275590613437565b80601f016020809104026020016040519081016040528092919081815260200182805461278190613437565b80156127ce5780601f106127a3576101008083540402835291602001916127ce565b820191906000526020600020905b8154815290600101906020018083116127b157829003601f168201915b5050505050905090565b60606000820361281f576040518060400160405280600181526020017f30000000000000000000000000000000000000000000000000000000000000008152509050612933565b600082905060005b6000821461285157808061283a90613b61565b915050600a8261284a9190614215565b9150612827565b60008167ffffffffffffffff81111561286d5761286c612efb565b5b6040519080825280601f01601f19166020018201604052801561289f5781602001600182028036833780820191505090505b5090505b6000851461292c576001826128b89190613fdc565b9150600a856128c79190614246565b60306128d391906139d9565b60f81b8183815181106128e9576128e8613d65565b5b60200101907effffffffffffffffffffffffffffffffffffffffffffffffffffffffffffff1916908160001a905350600a856129259190614215565b94506128a3565b8093505050505b919050565b505050565b505050565b60006129638473ffffffffffffffffffffffffffffffffffffffff16612ac9565b15612abc578373ffffffffffffffffffffffffffffffffffffffff1663150b7a0261298c611eda565b8786866040518563ffffffff1660e01b81526004016129ae94939291906142cc565b6020604051808303816000875af19250505080156129ea57506040513d601f19601f820116820180604052508101906129e7919061432d565b60015b612a6c573d8060008114612a1a576040519150601f19603f3d011682016040523d82523d6000602084013e612a1f565b606091505b506000815103612a64576040517f08c379a0000000000000000000000000000000000000000000000000000000008152600401612a5b906141c6565b60405180910390fd5b805181602001fd5b63150b7a0260e01b7bffffffffffffffffffffffffffffffffffffffffffffffffffffffff1916817bffffffffffffffffffffffffffffffffffffffffffffffffffffffff191614915050612ac1565b600190505b949350505050565b6000808273ffffffffffffffffffffffffffffffffffffffff163b119050919050565b828054612af890613437565b90600052602060002090601f016020900481019282612b1a5760008555612b61565b82601f10612b3357805160ff1916838001178555612b61565b82800160010185558215612b61579182015b82811115612b60578251825591602001919060010190612b45565b5b509050612b6e9190612ba2565b5090565b6040518060400160405280600073ffffffffffffffffffffffffffffffffffffffff168152602001600081525090565b5b80821115612bbb576000816000905550600101612ba3565b5090565b6000604051905090565b600080fd5b600080fd5b60007fffffffff0000000000000000000000000000000000000000000000000000000082169050919050565b612c0881612bd3565b8114612c1357600080fd5b50565b600081359050612c2581612bff565b92915050565b600060208284031215612c4157612c40612bc9565b5b6000612c4f84828501612c16565b91505092915050565b60008115159050919050565b612c6d81612c58565b82525050565b6000602082019050612c886000830184612c64565b92915050565b600081519050919050565b600082825260208201905092915050565b60005b83811015612cc8578082015181840152602081019050612cad565b83811115612cd7576000848401525b50505050565b6000601f19601f8301169050919050565b6000612cf982612c8e565b612d038185612c99565b9350612d13818560208601612caa565b612d1c81612cdd565b840191505092915050565b60006020820190508181036000830152612d418184612cee565b905092915050565b6000819050919050565b612d5c81612d49565b8114612d6757600080fd5b50565b600081359050612d7981612d53565b92915050565b600060208284031215612d9557612d94612bc9565b5b6000612da384828501612d6a565b91505092915050565b600073ffffffffffffffffffffffffffffffffffffffff82169050919050565b6000612dd782612dac565b9050919050565b612de781612dcc565b82525050565b6000602082019050612e026000830184612dde565b92915050565b612e1181612dcc565b8114612e1c57600080fd5b50565b600081359050612e2e81612e08565b92915050565b60008060408385031215612e4b57612e4a612bc9565b5b6000612e5985828601612e1f565b9250506020612e6a85828601612d6a565b9150509250929050565b612e7d81612d49565b82525050565b6000602082019050612e986000830184612e74565b92915050565b600080600060608486031215612eb757612eb6612bc9565b5b6000612ec586828701612e1f565b9350506020612ed686828701612e1f565b9250506040612ee786828701612d6a565b9150509250925092565b600080fd5b600080fd5b7f4e487b7100000000000000000000000000000000000000000000000000000000600052604160045260246000fd5b612f3382612cdd565b810181811067ffffffffffffffff82111715612f5257612f51612efb565b5b80604052505050565b6000612f65612bbf565b9050612f718282612f2a565b919050565b600067ffffffffffffffff821115612f9157612f90612efb565b5b612f9a82612cdd565b9050602081019050919050565b82818337600083830152505050565b6000612fc9612fc484612f76565b612f5b565b905082815260208101848484011115612fe557612fe4612ef6565b5b612ff0848285612fa7565b509392505050565b600082601f83011261300d5761300c612ef1565b5b813561301d848260208601612fb6565b91505092915050565b60006020828403121561303c5761303b612bc9565b5b600082013567ffffffffffffffff81111561305a57613059612bce565b5b61306684828501612ff8565b91505092915050565b60006020828403121561308557613084612bc9565b5b600061309384828501612e1f565b91505092915050565b6130a581612c58565b81146130b057600080fd5b50565b6000813590506130c28161309c565b92915050565b600080604083850312156130df576130de612bc9565b5b60006130ed85828601612e1f565b92505060206130fe858286016130b3565b9150509250929050565b600067ffffffffffffffff82111561312357613122612efb565b5b61312c82612cdd565b9050602081019050919050565b600061314c61314784613108565b612f5b565b90508281526020810184848401111561316857613167612ef6565b5b613173848285612fa7565b509392505050565b600082601f8301126131905761318f612ef1565b5b81356131a0848260208601613139565b91505092915050565b600080600080608085870312156131c3576131c2612bc9565b5b60006131d187828801612e1f565b94505060206131e287828801612e1f565b93505060406131f387828801612d6a565b925050606085013567ffffffffffffffff81111561321457613213612bce565b5b6132208782880161317b565b91505092959194509250565b600061323782612dac565b9050919050565b6132478161322c565b811461325257600080fd5b50565b6000813590506132648161323e565b92915050565b6000806040838503121561328157613280612bc9565b5b600061328f85828601613255565b92505060206132a085828601612d6a565b9150509250929050565b600081519050919050565b600082825260208201905092915050565b6000819050602082019050919050565b6132df81612dcc565b82525050565b6132ee81612d49565b82525050565b60408201600082015161330a60008501826132d6565b50602082015161331d60208501826132e5565b50505050565b600061332f83836132f4565b60408301905092915050565b6000602082019050919050565b6000613353826132aa565b61335d81856132b5565b9350613368836132c6565b8060005b838110156133995781516133808882613323565b975061338b8361333b565b92505060018101905061336c565b5085935050505092915050565b600060208201905081810360008301526133c08184613348565b905092915050565b600080604083850312156133df576133de612bc9565b5b60006133ed85828601612e1f565b92505060206133fe85828601612e1f565b9150509250929050565b7f4e487b7100000000000000000000000000000000000000000000000000000000600052602260045260246000fd5b6000600282049050600182168061344f57607f821691505b60208210810361346257613461613408565b5b50919050565b7f4552433732313a20617070726f76656420717565727920666f72206e6f6e657860008201527f697374656e7420746f6b656e0000000000000000000000000000000000000000602082015250565b60006134c4602c83612c99565b91506134cf82613468565b604082019050919050565b600060208201905081810360008301526134f3816134b7565b9050919050565b7f4552433732313a20617070726f76616c20746f2063757272656e74206f776e6560008201527f7200000000000000000000000000000000000000000000000000000000000000602082015250565b6000613556602183612c99565b9150613561826134fa565b604082019050919050565b6000602082019050818103600083015261358581613549565b9050919050565b7f4552433732313a20617070726f76652063616c6c6572206973206e6f74206f7760008201527f6e6572206e6f7220617070726f76656420666f7220616c6c0000000000000000602082015250565b60006135e8603883612c99565b91506135f38261358c565b604082019050919050565b60006020820190508181036000830152613617816135db565b9050919050565b7f4f776e61626c653a2063616c6c6572206973206e6f7420746865206f776e6572600082015250565b6000613654602083612c99565b915061365f8261361e565b602082019050919050565b6000602082019050818103600083015261368381613647565b9050919050565b7f4552433732313a207472616e736665722063616c6c6572206973206e6f74206f60008201527f776e6572206e6f7220617070726f766564000000000000000000000000000000602082015250565b60006136e6603183612c99565b91506136f18261368a565b604082019050919050565b60006020820190508181036000830152613715816136d9565b9050919050565b7f4552433732313a206f776e657220717565727920666f72206e6f6e657869737460008201527f656e7420746f6b656e0000000000000000000000000000000000000000000000602082015250565b6000613778602983612c99565b91506137838261371c565b604082019050919050565b600060208201905081810360008301526137a78161376b565b9050919050565b7f4552433732313a2061646472657373207a65726f206973206e6f74206120766160008201527f6c6964206f776e65720000000000000000000000000000000000000000000000602082015250565b600061380a602983612c99565b9150613815826137ae565b604082019050919050565b60006020820190508181036000830152613839816137fd565b9050919050565b7f4d696e74696e672069736e742061637469766500000000000000000000000000600082015250565b6000613876601383612c99565b915061388182613840565b602082019050919050565b600060208201905081810360008301526138a581613869565b9050919050565b7f4e65656420746f204d696e74206174206c656173742031204e46540000000000600082015250565b60006138e2601b83612c99565b91506138ed826138ac565b602082019050919050565b60006020820190508181036000830152613911816138d5565b9050919050565b7f596f752063616e74206d696e742074686174207175616e74697479206f66204e60008201527f4654000000000000000000000000000000000000000000000000000000000000602082015250565b6000613974602283612c99565b915061397f82613918565b604082019050919050565b600060208201905081810360008301526139a381613967565b9050919050565b7f4e487b7100000000000000000000000000000000000000000000000000000000600052601160045260246000fd5b60006139e482612d49565b91506139ef83612d49565b9250827fffffffffffffffffffffffffffffffffffffffffffffffffffffffffffffffff03821115613a2457613a236139aa565b5b828201905092915050565b7f596f75206172652070617373696e6720746865206c696d6974206f66204e4654600082015250565b6000613a65602083612c99565b9150613a7082613a2f565b602082019050919050565b60006020820190508181036000830152613a9481613a58565b9050919050565b6000613aa682612d49565b9150613ab183612d49565b9250817fffffffffffffffffffffffffffffffffffffffffffffffffffffffffffffffff0483118215151615613aea57613ae96139aa565b5b828202905092915050565b7f596f7520646f6e74206861766520656e6f756768206d6f6e6579000000000000600082015250565b6000613b2b601a83612c99565b9150613b3682613af5565b602082019050919050565b60006020820190508181036000830152613b5a81613b1e565b9050919050565b6000613b6c82612d49565b91507fffffffffffffffffffffffffffffffffffffffffffffffffffffffffffffffff8203613b9e57613b9d6139aa565b5b600182019050919050565b6000604082019050613bbe6000830185612dde565b613bcb6020830184612e74565b9392505050565b7f4552433732314d657461646174613a2055524920717565727920666f72206e6f60008201527f6e6578697374656e7420746f6b656e0000000000000000000000000000000000602082015250565b6000613c2e602f83612c99565b9150613c3982613bd2565b604082019050919050565b60006020820190508181036000830152613c5d81613c21565b9050919050565b600081905092915050565b6000613c7a82612c8e565b613c848185613c64565b9350613c94818560208601612caa565b80840191505092915050565b60008190508160005260206000209050919050565b60008154613cc281613437565b613ccc8186613c64565b94506001821660008114613ce75760018114613cf857613d2b565b60ff19831686528186019350613d2b565b613d0185613ca0565b60005b83811015613d2357815481890152600182019150602081019050613d04565b838801955050505b50505092915050565b6000613d408286613c6f565b9150613d4c8285613c6f565b9150613d588284613cb5565b9150819050949350505050565b7f4e487b7100000000000000000000000000000000000000000000000000000000600052603260045260246000fd5b7f4f776e61626c653a206e6577206f776e657220697320746865207a65726f206160008201527f6464726573730000000000000000000000000000000000000000000000000000602082015250565b6000613df0602683612c99565b9150613dfb82613d94565b604082019050919050565b60006020820190508181036000830152613e1f81613de3565b9050919050565b7f4552433732313a206f70657261746f7220717565727920666f72206e6f6e657860008201527f697374656e7420746f6b656e0000000000000000000000000000000000000000602082015250565b6000613e82602c83612c99565b9150613e8d82613e26565b604082019050919050565b60006020820190508181036000830152613eb181613e75565b9050919050565b7f4552433732313a207472616e736665722066726f6d20696e636f72726563742060008201527f6f776e6572000000000000000000000000000000000000000000000000000000602082015250565b6000613f14602583612c99565b9150613f1f82613eb8565b604082019050919050565b60006020820190508181036000830152613f4381613f07565b9050919050565b7f4552433732313a207472616e7366657220746f20746865207a65726f2061646460008201527f7265737300000000000000000000000000000000000000000000000000000000602082015250565b6000613fa6602483612c99565b9150613fb182613f4a565b604082019050919050565b60006020820190508181036000830152613fd581613f99565b9050919050565b6000613fe782612d49565b9150613ff283612d49565b925082821015614005576140046139aa565b5b828203905092915050565b7f4552433732313a206d696e7420746f20746865207a65726f2061646472657373600082015250565b6000614046602083612c99565b915061405182614010565b602082019050919050565b6000602082019050818103600083015261407581614039565b9050919050565b7f4552433732313a20746f6b656e20616c7265616479206d696e74656400000000600082015250565b60006140b2601c83612c99565b91506140bd8261407c565b602082019050919050565b600060208201905081810360008301526140e1816140a5565b9050919050565b7f4552433732313a20617070726f766520746f2063616c6c657200000000000000600082015250565b600061411e601983612c99565b9150614129826140e8565b602082019050919050565b6000602082019050818103600083015261414d81614111565b9050919050565b7f4552433732313a207472616e7366657220746f206e6f6e20455243373231526560008201527f63656976657220696d706c656d656e7465720000000000000000000000000000602082015250565b60006141b0603283612c99565b91506141bb82614154565b604082019050919050565b600060208201905081810360008301526141df816141a3565b9050919050565b7f4e487b7100000000000000000000000000000000000000000000000000000000600052601260045260246000fd5b600061422082612d49565b915061422b83612d49565b92508261423b5761423a6141e6565b5b828204905092915050565b600061425182612d49565b915061425c83612d49565b92508261426c5761426b6141e6565b5b828206905092915050565b600081519050919050565b600082825260208201905092915050565b600061429e82614277565b6142a88185614282565b93506142b8818560208601612caa565b6142c181612cdd565b840191505092915050565b60006080820190506142e16000830187612dde565b6142ee6020830186612dde565b6142fb6040830185612e74565b818103606083015261430d8184614293565b905095945050505050565b60008151905061432781612bff565b92915050565b60006020828403121561434357614342612bc9565b5b600061435184828501614318565b9150509291505056fea2646970667358221220a0157298c1e505043be324be3970380ccf06dfbd7b4515cbbdbe5aaa093da88664736f6c634300080d0033",
  "immutableReferences": {},
  "source": "// SPDX-License-Identifier: GPL-3.0\npragma solidity >=0.7.0 <0.9.0;\n\nimport \"./ERC721full.sol\";\nimport \"../node_modules/@openzeppelin/contracts/access/Ownable.sol\";\nimport \"../node_modules/@openzeppelin/contracts/utils/Strings.sol\";\n\ncontract NFT is ERC721, Ownable{\n\n    address public contrato;\n    address _owner;\n    uint cost = 0.0002 ether;\n    uint public maxSupply = 10000;\n    uint public maxMintAmount = 5;\n    bool public pause = false;\n    uint public counter = 0;\n    bool public revealed = false;\n    string public notRevealedUri;\n    \n    string baseURI;\n    string public baseExtension = \".json\";\n\n    // Referencia por billetera\n    mapping(address => uint) public billeteraToNFT;\n    // Referencia de ID por billetera\n    mapping(uint => address) public idToAddress;\n\n    cuerpoNft [] allnfts;\n\n    struct cuerpoNft{\n        address add;\n        uint id;\n       \n    } \n    // Evento de minteo\n\n    event whoMint(address, uint);\n    \n    constructor(\n    \n        string memory _initBaseURI,\n        string memory _initNotRevealedUri\n    ) ERC721(\"NFTLips\", \"Lips\") payable{\n        contrato = address(this);\n        _owner = msg.sender;\n        setBaseURI(_initBaseURI);\n        setNotRevealedURI(_initNotRevealedUri);         \n    }\n\n\n    //INTERNAL\n    \n    function _baseURI() internal view virtual override returns (string memory) {\n    return baseURI;\n  }\n    // MINTEO\n\n    function mint(uint _mintAmount) public payable{\n         \n        //Requerimientos \n        require(pause == true, \"Minting isnt active\");\n        require(_mintAmount > 0, \"Need to Mint at least 1 NFT\");\n        require(_mintAmount <= maxMintAmount, \"You cant mint that quantity of NFT\");\n        require(counter + _mintAmount <= maxSupply , \"You are passing the limit of NFT\"); \n        require(msg.value >= cost * _mintAmount, \"You dont have enough money\");\n\n        uint randNounce= 0;\n        uint randNounce2 = 1;\n\n        for (uint256 i = 1; i <= _mintAmount; i++) {\n        //Random\n        randNounce ++;\n        randNounce2 ++;\n        //contador \n        counter ++;\n        \n        cuerpoNft memory result = cuerpoNft(msg.sender, counter);\n        allnfts.push(result);\n\n         //Referencia del NFT por billetera\n         idToAddress[counter] = msg.sender;\n        //Minteo\n        _mint(msg.sender, counter);\n        // Evento de mintep\n        emit whoMint(msg.sender, counter);\n        \n        }\n     }\n\n    // Activacion\n\n    function activacion () public onlyOwner{\n        pause = true;\n    }\n\n    function getAllNFT() public view returns(cuerpoNft[]memory){\n      return allnfts;\n  }\n\n  // NFTs de una direccion en especifico\n\n  function getOwnerNFT(address _address) public view returns(cuerpoNft[]memory){\n        cuerpoNft[] memory result = new cuerpoNft[](balanceOf(_address));\n        uint256 counter1 = 0;\n            for(uint i = 0; i < allnfts.length; i++){\n                if(idToAddress[i+1] == _address)\n                result[counter1] = allnfts[i];\n                counter1 ++;\n            }\n            return result;\n    }\n\n   \n\n    // BaseUri de cada token\n\n   function tokenURI(uint256 _tokenId)\n    public\n    view\n    virtual\n    override\n    returns (string memory)\n  {\n    require(\n      _exists(_tokenId),\n      \"ERC721Metadata: URI query for nonexistent token\"\n    );\n\n    if (revealed == false) {\n      return notRevealedUri;\n    }\n\n    string memory currentBaseURI = _baseURI();\n    return bytes(currentBaseURI).length > 0\n        ? string(abi.encodePacked(currentBaseURI, Strings.toString(_tokenId), baseExtension))\n        : \"\";\n  }\n    \n\n\n    function reveal() public onlyOwner {\n      revealed = true;\n    }\n\n    function setMaxMintAmountPerTx(uint256 _maxMintAmountPerTx) public onlyOwner {\n        maxMintAmount = _maxMintAmountPerTx;\n    }\n\n    function setNotRevealedURI(string memory _notRevealedURI) public onlyOwner {\n     notRevealedUri = _notRevealedURI;\n     }\n\n    function setBaseURI(string memory _newBaseURI) public onlyOwner {\n     baseURI = _newBaseURI;\n    }\n\n    function setBaseExtension(string memory _newBaseExtension) public onlyOwner {\n        baseExtension = _newBaseExtension;\n    }\n\n       // RETIRAR DEL CONTRATO\n\n\n    function sendEther(address payable _to, uint256 _amount) public payable onlyOwner{\n       _to.transfer(_amount);\n    }\n\n    function balanceContract(address _wallet) public view returns(uint256){\n        return _wallet.balance;\n    }\n\n}",
  "sourcePath": "/Users/sau/Desktop/all/portafolio/nft10k2/contracts/NFT.sol",
  "compiler": {
    "name": "solc",
    "version": "0.8.13+commit.abaa5c0e.Emscripten.clang"
  },
  "schemaVersion": "3.4.4",
  "updatedAt": "2022-04-10T02:48:08.016Z",
  "devdoc": {
    "kind": "dev",
    "methods": {
      "approve(address,uint256)": {
        "details": "See {IERC721-approve}."
      },
      "balanceOf(address)": {
        "details": "See {IERC721-balanceOf}."
      },
      "getApproved(uint256)": {
        "details": "See {IERC721-getApproved}."
      },
      "isApprovedForAll(address,address)": {
        "details": "See {IERC721-isApprovedForAll}."
      },
      "name()": {
        "details": "See {IERC721Metadata-name}."
      },
      "owner()": {
        "details": "Returns the address of the current owner."
      },
      "ownerOf(uint256)": {
        "details": "See {IERC721-ownerOf}."
      },
      "renounceOwnership()": {
        "details": "Leaves the contract without owner. It will not be possible to call `onlyOwner` functions anymore. Can only be called by the current owner. NOTE: Renouncing ownership will leave the contract without an owner, thereby removing any functionality that is only available to the owner."
      },
      "safeTransferFrom(address,address,uint256)": {
        "details": "See {IERC721-safeTransferFrom}."
      },
      "safeTransferFrom(address,address,uint256,bytes)": {
        "details": "See {IERC721-safeTransferFrom}."
      },
      "setApprovalForAll(address,bool)": {
        "details": "See {IERC721-setApprovalForAll}."
      },
      "supportsInterface(bytes4)": {
        "details": "See {IERC165-supportsInterface}."
      },
      "symbol()": {
        "details": "See {IERC721Metadata-symbol}."
      },
      "transferFrom(address,address,uint256)": {
        "details": "See {IERC721-transferFrom}."
      },
      "transferOwnership(address)": {
        "details": "Transfers ownership of the contract to a new account (`newOwner`). Can only be called by the current owner."
      }
    },
    "version": 1
  },
  "userdoc": {
    "kind": "user",
    "methods": {},
    "version": 1
  }
}